{
  "contractName": "getReserve",
  "abi": [
    {
      "inputs": [
        {
          "internalType": "address[]",
          "name": "_add",
          "type": "address[]"
        }
      ],
      "name": "get",
      "outputs": [
        {
          "internalType": "uint256[]",
          "name": "",
          "type": "uint256[]"
        }
      ],
      "stateMutability": "view",
      "type": "function",
      "constant": true
    },
    {
      "inputs": [
        {
          "internalType": "address",
          "name": "_add",
          "type": "address"
        }
      ],
      "name": "getOnlyOne",
      "outputs": [
        {
          "internalType": "uint112",
          "name": "",
          "type": "uint112"
        },
        {
          "internalType": "uint112",
          "name": "",
          "type": "uint112"
        },
        {
          "internalType": "uint32",
          "name": "",
          "type": "uint32"
        }
      ],
      "stateMutability": "view",
      "type": "function",
      "constant": true
    }
  ],
  "bytecode": "0x608060405234801561001057600080fd5b50610873806100206000396000f3fe608060405234801561001057600080fd5b50600436106100365760003560e01c80630a5b494b1461003b578063a61d98681461006b575b600080fd5b61005560048036038101906100509190610497565b61009d565b60405161006291906105a8565b60405180910390f35b610085600480360381019061008091906105ca565b61024b565b6040516100949392919061063f565b60405180910390f35b606060008251905060006002826100b491906106a5565b67ffffffffffffffff8111156100cd576100cc6102f6565b5b6040519080825280602002602001820160405280156100fb5781602001602082028036833780820191505090505b509050600080600080600090505b8581101561023d57878181518110610124576101236106e7565b5b602002602001015173ffffffffffffffffffffffffffffffffffffffff16630902f1ac6040518163ffffffff1660e01b8152600401606060405180830381865afa158015610176573d6000803e3d6000fd5b505050506040513d601f19601f8201168201806040525081019061019a919061076e565b809450819550829650505050836dffffffffffffffffffffffffffff16856002836101c591906106a5565b815181106101d6576101d56106e7565b5b602002602001018181525050826dffffffffffffffffffffffffffff1685600160028461020391906106a5565b61020d91906107c1565b8151811061021e5761021d6106e7565b5b6020026020010181815250508080610235906107f5565b915050610109565b508395505050505050919050565b60008060008373ffffffffffffffffffffffffffffffffffffffff16630902f1ac6040518163ffffffff1660e01b8152600401606060405180830381865afa15801561029b573d6000803e3d6000fd5b505050506040513d601f19601f820116820180604052508101906102bf919061076e565b9250925092509193909250565b6000604051905090565b600080fd5b600080fd5b600080fd5b6000601f19601f8301169050919050565b7f4e487b7100000000000000000000000000000000000000000000000000000000600052604160045260246000fd5b61032e826102e5565b810181811067ffffffffffffffff8211171561034d5761034c6102f6565b5b80604052505050565b60006103606102cc565b905061036c8282610325565b919050565b600067ffffffffffffffff82111561038c5761038b6102f6565b5b602082029050602081019050919050565b600080fd5b600073ffffffffffffffffffffffffffffffffffffffff82169050919050565b60006103cd826103a2565b9050919050565b6103dd816103c2565b81146103e857600080fd5b50565b6000813590506103fa816103d4565b92915050565b600061041361040e84610371565b610356565b905080838252602082019050602084028301858111156104365761043561039d565b5b835b8181101561045f578061044b88826103eb565b845260208401935050602081019050610438565b5050509392505050565b600082601f83011261047e5761047d6102e0565b5b813561048e848260208601610400565b91505092915050565b6000602082840312156104ad576104ac6102d6565b5b600082013567ffffffffffffffff8111156104cb576104ca6102db565b5b6104d784828501610469565b91505092915050565b600081519050919050565b600082825260208201905092915050565b6000819050602082019050919050565b6000819050919050565b61051f8161050c565b82525050565b60006105318383610516565b60208301905092915050565b6000602082019050919050565b6000610555826104e0565b61055f81856104eb565b935061056a836104fc565b8060005b8381101561059b5781516105828882610525565b975061058d8361053d565b92505060018101905061056e565b5085935050505092915050565b600060208201905081810360008301526105c2818461054a565b905092915050565b6000602082840312156105e0576105df6102d6565b5b60006105ee848285016103eb565b91505092915050565b60006dffffffffffffffffffffffffffff82169050919050565b61061a816105f7565b82525050565b600063ffffffff82169050919050565b61063981610620565b82525050565b60006060820190506106546000830186610611565b6106616020830185610611565b61066e6040830184610630565b949350505050565b7f4e487b7100000000000000000000000000000000000000000000000000000000600052601160045260246000fd5b60006106b08261050c565b91506106bb8361050c565b92508282026106c98161050c565b915082820484148315176106e0576106df610676565b5b5092915050565b7f4e487b7100000000000000000000000000000000000000000000000000000000600052603260045260246000fd5b61071f816105f7565b811461072a57600080fd5b50565b60008151905061073c81610716565b92915050565b61074b81610620565b811461075657600080fd5b50565b60008151905061076881610742565b92915050565b600080600060608486031215610787576107866102d6565b5b60006107958682870161072d565b93505060206107a68682870161072d565b92505060406107b786828701610759565b9150509250925092565b60006107cc8261050c565b91506107d78361050c565b92508282019050808211156107ef576107ee610676565b5b92915050565b60006108008261050c565b91507fffffffffffffffffffffffffffffffffffffffffffffffffffffffffffffffff820361083257610831610676565b5b60018201905091905056fea264697066735822122066a00b8a38d7f412b4e6659073391270f30b22410f12f7dc8eaff7f283b12f9a64736f6c63430008110033",
  "immutableReferences": {},
  "source": "// SPDX-License-Identifier: MIT\n// compiled with 0.8.17\npragma solidity >=0.4.22 <0.9.0;\n\n\ncontract IUniswapV2Pair {\n  function getReserves() public view returns (uint112 reserve0, uint112 reserve1, uint32 blockTimestampLast) {}\n}\n\n\ncontract getReserve {\n  function get(address[] memory _add) external view returns (uint[] memory) {\n    uint n = _add.length;\n    uint[] memory liste = new uint[](n*2);\n    \n    // Define variables to store the returned values\n    uint112 reserve0;\n    uint112 reserve1;\n    uint32 blockTimestampLast;\n    for (uint i=0; i<n; i++) {\n      // Call the getReserves function in the other contract and store the returned values\n      (reserve0, reserve1, blockTimestampLast) = IUniswapV2Pair(_add[i]).getReserves();\n      liste[i*2] = reserve0;\n      liste[i*2+1] = reserve1;\n    }\n    \n    return liste;\n  }\n\n  function getOnlyOne(address _add) external view returns (uint112, uint112, uint32) {\n    return IUniswapV2Pair(_add).getReserves();\n  }\n}",
  "sourcePath": "/home/tttienthinh/Documents/Programmation/Arbitrage/SolidityContracts/getReserve/contracts/getReserve.sol",
  "compiler": {
    "name": "solc",
    "version": "0.8.17+commit.8df45f5f.Emscripten.clang"
  },
  "schemaVersion": "3.4.10",
  "updatedAt": "2022-12-22T22:50:50.110Z",
  "networkType": "ethereum",
  "devdoc": {
    "kind": "dev",
    "methods": {},
    "version": 1
  },
  "userdoc": {
    "kind": "user",
    "methods": {},
    "version": 1
  }
}