{
  "contractName": "IUniswapV2Pair",
  "abi": [
    {
      "inputs": [],
      "name": "getReserves",
      "outputs": [
        {
          "internalType": "uint112",
          "name": "reserve0",
          "type": "uint112"
        },
        {
          "internalType": "uint112",
          "name": "reserve1",
          "type": "uint112"
        },
        {
          "internalType": "uint32",
          "name": "blockTimestampLast",
          "type": "uint32"
        }
      ],
      "stateMutability": "pure",
      "type": "function",
      "constant": true
    }
  ],
  "bytecode": "0x608060405234801561001057600080fd5b5061010a806100206000396000f3fe6080604052348015600f57600080fd5b506004361060285760003560e01c80630902f1ac14602d575b600080fd5b60336049565b60405160409392919060a3565b60405180910390f35b6000806000600b9250600c9150600d9050909192565b60006dffffffffffffffffffffffffffff82169050919050565b608081605f565b82525050565b600063ffffffff82169050919050565b609d816086565b82525050565b600060608201905060b660008301866079565b60c160208301856079565b60cc60408301846096565b94935050505056fea2646970667358221220b6f716da940f0c2516b1a56a25b435f938874e3e2cfffd43b0bbf8ae0a07aa3c64736f6c63430008110033",
  "immutableReferences": {},
  "source": "// SPDX-License-Identifier: MIT\n// compiled with 0.8.17\npragma solidity >=0.4.22 <0.9.0;\n\n\n\ncontract IUniswapV2Pair {\n\n  function getReserves() external pure returns (uint112 reserve0, uint112 reserve1, uint32 blockTimestampLast) {\n    reserve0 = 11;\n    reserve1 = 12;\n    blockTimestampLast = 13;\n    \n    return (reserve0, reserve1, blockTimestampLast);\n  }\n\n}\n",
  "sourcePath": "/home/tttienthinh/Documents/Programmation/Arbitrage/SolidityContracts/getReserve/contracts/IUniswapV2Pair.sol",
  "compiler": {
    "name": "solc",
    "version": "0.8.17+commit.8df45f5f.Emscripten.clang"
  },
  "schemaVersion": "3.4.10",
  "updatedAt": "2022-12-22T22:50:50.436Z",
  "networkType": "ethereum",
  "devdoc": {
    "kind": "dev",
    "methods": {},
    "version": 1
  },
  "userdoc": {
    "kind": "user",
    "methods": {},
    "version": 1
  }
}