{
  "contractName": "tmpContract",
  "abi": [
    {
      "inputs": [],
      "name": "getReserves",
      "outputs": [
        {
          "internalType": "uint112",
          "name": "reserve0",
          "type": "uint112"
        },
        {
          "internalType": "uint112",
          "name": "reserve1",
          "type": "uint112"
        },
        {
          "internalType": "uint32",
          "name": "blockTimestampLast",
          "type": "uint32"
        }
      ],
      "stateMutability": "view",
      "type": "function",
      "constant": true
    }
  ],
  "bytecode": "0x608060405234801561001057600080fd5b5060fe8061001f6000396000f3fe6080604052348015600f57600080fd5b506004361060285760003560e01c80630902f1ac14602d575b600080fd5b60336049565b6040516040939291906097565b60405180910390f35b6000806000909192565b60006dffffffffffffffffffffffffffff82169050919050565b6074816053565b82525050565b600063ffffffff82169050919050565b609181607a565b82525050565b600060608201905060aa6000830186606d565b60b56020830185606d565b60c06040830184608a565b94935050505056fea264697066735822122099dfd1b9dcc851b308f2e80c468a3ca0c86894d9ffb67264f05bd5ebef49c6aa64736f6c63430008110033",
  "immutableReferences": {},
  "source": "// SPDX-License-Identifier: MIT\n// compiled with 0.8.17\npragma solidity >=0.4.22 <0.9.0;\n\n\ncontract tmpContract {\n  function getReserves() public view returns (uint112 reserve0, uint112 reserve1, uint32 blockTimestampLast) {}\n}\n\n\ncontract middleMan {\n  function getList(address[] memory _add) external view returns (uint[] memory) {\n    uint n = _add.length;\n    uint[] memory liste = new uint[](n*2);\n    \n    // Define variables to store the returned values\n    uint112 r0;\n    uint112 r1;\n    uint32 bTLast;\n    for (uint i=0; i<n; i++) {\n      // Call the getReserves function in the other contract and store the returned values\n      (r0, r1, bTLast) = tmpContract(_add[i]).getReserves();\n      liste[i*2] = r0;\n      liste[i*2+1] = r1;\n    }\n    \n    return liste;\n  }\n\n  function getOnlyOne(address _add) external view returns (uint112, uint112, uint32) {\n    return tmpContract(_add).getReserves();\n  }\n}",
  "sourcePath": "/home/tttienthinh/Documents/Programmation/Arbitrage/SolidityContracts/getReserve/contracts/getReserve.sol",
  "compiler": {
    "name": "solc",
    "version": "0.8.17+commit.8df45f5f.Emscripten.clang"
  },
  "schemaVersion": "3.4.10",
  "updatedAt": "2022-12-24T22:37:52.961Z",
  "networkType": "ethereum",
  "devdoc": {
    "kind": "dev",
    "methods": {},
    "version": 1
  },
  "userdoc": {
    "kind": "user",
    "methods": {},
    "version": 1
  }
}