{
  "contractName": "UniswapTrue",
  "abi": [
    {
      "inputs": [],
      "stateMutability": "nonpayable",
      "type": "constructor"
    },
    {
      "inputs": [],
      "name": "bTL",
      "outputs": [
        {
          "internalType": "uint32",
          "name": "",
          "type": "uint32"
        }
      ],
      "stateMutability": "view",
      "type": "function",
      "constant": true
    },
    {
      "inputs": [],
      "name": "r0",
      "outputs": [
        {
          "internalType": "uint112",
          "name": "",
          "type": "uint112"
        }
      ],
      "stateMutability": "view",
      "type": "function",
      "constant": true
    },
    {
      "inputs": [],
      "name": "r1",
      "outputs": [
        {
          "internalType": "uint112",
          "name": "",
          "type": "uint112"
        }
      ],
      "stateMutability": "view",
      "type": "function",
      "constant": true
    },
    {
      "inputs": [],
      "name": "getReserves",
      "outputs": [
        {
          "internalType": "uint112",
          "name": "_reserve0",
          "type": "uint112"
        },
        {
          "internalType": "uint112",
          "name": "_reserve1",
          "type": "uint112"
        },
        {
          "internalType": "uint32",
          "name": "_blockTimestampLast",
          "type": "uint32"
        }
      ],
      "stateMutability": "view",
      "type": "function",
      "constant": true
    }
  ],
  "bytecode": "0x608060405234801561001057600080fd5b5060026000806101000a8154816dffffffffffffffffffffffffffff02191690836dffffffffffffffffffffffffffff16021790555060036000600e6101000a8154816dffffffffffffffffffffffffffff02191690836dffffffffffffffffffffffffffff16021790555060046000601c6101000a81548163ffffffff021916908363ffffffff160217905550610266806100ad6000396000f3fe608060405234801561001057600080fd5b506004361061004c5760003560e01c80630902f1ac1461005157806337bd633a14610071578063659621b51461008f5780636ca5b5b0146100ad575b600080fd5b6100596100cb565b604051610068939291906101c3565b60405180910390f35b610079610127565b60405161008691906101fa565b60405180910390f35b61009761013d565b6040516100a49190610215565b60405180910390f35b6100b561015b565b6040516100c29190610215565b60405180910390f35b60008060008060009054906101000a90046dffffffffffffffffffffffffffff1692506000600e9054906101000a90046dffffffffffffffffffffffffffff1691506000601c9054906101000a900463ffffffff169050909192565b6000601c9054906101000a900463ffffffff1681565b60008054906101000a90046dffffffffffffffffffffffffffff1681565b6000600e9054906101000a90046dffffffffffffffffffffffffffff1681565b60006dffffffffffffffffffffffffffff82169050919050565b61019e8161017b565b82525050565b600063ffffffff82169050919050565b6101bd816101a4565b82525050565b60006060820190506101d86000830186610195565b6101e56020830185610195565b6101f260408301846101b4565b949350505050565b600060208201905061020f60008301846101b4565b92915050565b600060208201905061022a6000830184610195565b9291505056fea2646970667358221220d2e7ec99a691164c318e8f6a8b3e965d73bed4feba354fc12a267edcf0c56fd664736f6c63430008110033",
  "immutableReferences": {},
  "source": "// SPDX-License-Identifier: MIT\npragma solidity >=0.4.22 <0.9.0;\n\ncontract UniswapTrue {\n      uint112 public r0;           // uses single storage slot, accessible via getReserves\n    uint112 public r1;           // uses single storage slot, accessible via getReserves\n    uint32  public bTL; // uses single storage slot, accessible via getReserves\n  \n  constructor() public {\n    r0 = 2;\n    r1 = 3;\n    bTL = 4;\n  }\n\n    function getReserves() public view returns (uint112 _reserve0, uint112 _reserve1, uint32 _blockTimestampLast) {\n        _reserve0 = r0;\n        _reserve1 = r1;\n        _blockTimestampLast = bTL;\n    }\n}\n",
  "sourcePath": "/home/tttienthinh/Documents/Programmation/Arbitrage/SolidityContracts/getReserve/contracts/UniswapTrue.sol",
  "compiler": {
    "name": "solc",
    "version": "0.8.17+commit.8df45f5f.Emscripten.clang"
  },
  "schemaVersion": "3.4.10",
  "updatedAt": "2022-12-22T22:50:50.806Z",
  "networkType": "ethereum",
  "devdoc": {
    "kind": "dev",
    "methods": {},
    "version": 1
  },
  "userdoc": {
    "kind": "user",
    "methods": {},
    "version": 1
  }
}