{
  "contractName": "Existing",
  "abi": [
    {
      "inputs": [
        {
          "internalType": "address",
          "name": "_t",
          "type": "address"
        }
      ],
      "name": "existing",
      "outputs": [],
      "stateMutability": "nonpayable",
      "type": "function"
    },
    {
      "inputs": [],
      "name": "getA",
      "outputs": [
        {
          "internalType": "uint256",
          "name": "result",
          "type": "uint256"
        }
      ],
      "stateMutability": "view",
      "type": "function",
      "constant": true
    },
    {
      "inputs": [
        {
          "internalType": "uint256",
          "name": "_val",
          "type": "uint256"
        }
      ],
      "name": "setA",
      "outputs": [
        {
          "internalType": "uint256",
          "name": "result",
          "type": "uint256"
        }
      ],
      "stateMutability": "nonpayable",
      "type": "function"
    }
  ],
  "bytecode": "0x608060405234801561001057600080fd5b506103c7806100206000396000f3fe608060405234801561001057600080fd5b50600436106100415760003560e01c8063d46300fd14610046578063ee919d5014610064578063f3443cb114610094575b600080fd5b61004e6100b0565b60405161005b919061024b565b60405180910390f35b61007e60048036038101906100799190610297565b610147565b60405161008b919061024b565b60405180910390f35b6100ae60048036038101906100a99190610322565b6101ef565b005b60008060009054906101000a900473ffffffffffffffffffffffffffffffffffffffff1673ffffffffffffffffffffffffffffffffffffffff16630dbe671f6040518163ffffffff1660e01b8152600401602060405180830381865afa15801561011e573d6000803e3d6000fd5b505050506040513d601f19601f820116820180604052508101906101429190610364565b905090565b60008060009054906101000a900473ffffffffffffffffffffffffffffffffffffffff1673ffffffffffffffffffffffffffffffffffffffff1663ee919d50836040518263ffffffff1660e01b81526004016101a3919061024b565b6020604051808303816000875af11580156101c2573d6000803e3d6000fd5b505050506040513d601f19601f820116820180604052508101906101e69190610364565b50819050919050565b806000806101000a81548173ffffffffffffffffffffffffffffffffffffffff021916908373ffffffffffffffffffffffffffffffffffffffff16021790555050565b6000819050919050565b61024581610232565b82525050565b6000602082019050610260600083018461023c565b92915050565b600080fd5b61027481610232565b811461027f57600080fd5b50565b6000813590506102918161026b565b92915050565b6000602082840312156102ad576102ac610266565b5b60006102bb84828501610282565b91505092915050565b600073ffffffffffffffffffffffffffffffffffffffff82169050919050565b60006102ef826102c4565b9050919050565b6102ff816102e4565b811461030a57600080fd5b50565b60008135905061031c816102f6565b92915050565b60006020828403121561033857610337610266565b5b60006103468482850161030d565b91505092915050565b60008151905061035e8161026b565b92915050565b60006020828403121561037a57610379610266565b5b60006103888482850161034f565b9150509291505056fea2646970667358221220fd49a33ebe2c426be4de9e8578d201f1ace9af3708b22bce314062306116f05664736f6c63430008110033",
  "immutableReferences": {},
  "source": "// SPDX-License-Identifier: MIT\n// https://medium.com/@blockchain101/calling-the-function-of-another-contract-in-solidity-f9edfa921f4c\npragma solidity >=0.4.22 <0.9.0;\n\ncontract Deployed {\n    \n    function setA(uint) public returns (uint) {}\n    \n    function a() public pure returns (uint) {}\n    \n}\n\ncontract Existing  {\n    \n    Deployed dc;\n    \n    function existing(address _t) public {\n        dc = Deployed(_t);\n    }\n \n    function getA() public view returns (uint result) {\n        return dc.a();\n    }\n    \n    function setA(uint _val) public returns (uint result) {\n        dc.setA(_val);\n        return _val;\n    }\n    \n}",
  "sourcePath": "/home/tttienthinh/Documents/Programmation/Arbitrage/SolidityContracts/tests/contracts/Existing.sol",
  "compiler": {
    "name": "solc",
    "version": "0.8.17+commit.8df45f5f.Emscripten.clang"
  },
  "schemaVersion": "3.4.10",
  "updatedAt": "2022-12-18T23:11:48.553Z",
  "networkType": "ethereum",
  "devdoc": {
    "kind": "dev",
    "methods": {},
    "version": 1
  },
  "userdoc": {
    "kind": "user",
    "methods": {},
    "version": 1
  }
}