{
  "contractName": "Test",
  "abi": [
    {
      "inputs": [],
      "name": "getFavoriteNumber",
      "outputs": [
        {
          "internalType": "uint256",
          "name": "",
          "type": "uint256"
        }
      ],
      "stateMutability": "view",
      "type": "function",
      "constant": true
    },
    {
      "inputs": [
        {
          "internalType": "uint256",
          "name": "_favoriteNumber",
          "type": "uint256"
        }
      ],
      "name": "setFavoriteNumber",
      "outputs": [],
      "stateMutability": "nonpayable",
      "type": "function"
    },
    {
      "inputs": [
        {
          "internalType": "uint256",
          "name": "_x",
          "type": "uint256"
        }
      ],
      "name": "addition",
      "outputs": [
        {
          "internalType": "uint256",
          "name": "",
          "type": "uint256"
        }
      ],
      "stateMutability": "pure",
      "type": "function",
      "constant": true
    },
    {
      "inputs": [
        {
          "internalType": "uint256",
          "name": "_x",
          "type": "uint256"
        },
        {
          "internalType": "uint256",
          "name": "_y",
          "type": "uint256"
        }
      ],
      "name": "multiplication",
      "outputs": [
        {
          "internalType": "uint256",
          "name": "",
          "type": "uint256"
        }
      ],
      "stateMutability": "pure",
      "type": "function",
      "constant": true
    }
  ],
  "bytecode": "0x608060405234801561001057600080fd5b506102d7806100206000396000f3fe608060405234801561001057600080fd5b506004361061004c5760003560e01c8063543209b7146100515780638ec0423214610081578063a621d15e1461009d578063bbe562b0146100bb575b600080fd5b61006b60048036038101906100669190610165565b6100eb565b60405161007891906101a1565b60405180910390f35b61009b60048036038101906100969190610165565b610101565b005b6100a561010b565b6040516100b291906101a1565b60405180910390f35b6100d560048036038101906100d091906101bc565b610114565b6040516100e291906101a1565b60405180910390f35b60006005826100fa919061022b565b9050919050565b8060008190555050565b60008054905090565b60008183610122919061025f565b905092915050565b600080fd5b6000819050919050565b6101428161012f565b811461014d57600080fd5b50565b60008135905061015f81610139565b92915050565b60006020828403121561017b5761017a61012a565b5b600061018984828501610150565b91505092915050565b61019b8161012f565b82525050565b60006020820190506101b66000830184610192565b92915050565b600080604083850312156101d3576101d261012a565b5b60006101e185828601610150565b92505060206101f285828601610150565b9150509250929050565b7f4e487b7100000000000000000000000000000000000000000000000000000000600052601160045260246000fd5b60006102368261012f565b91506102418361012f565b9250828201905080821115610259576102586101fc565b5b92915050565b600061026a8261012f565b91506102758361012f565b92508282026102838161012f565b9150828204841483151761029a576102996101fc565b5b509291505056fea26469706673582212207640a253523015a5243b05a34d7627e92bf8372442ced8b6434abddd8084677764736f6c63430008110033",
  "immutableReferences": {},
  "source": "// SPDX-License-Identifier: MIT\npragma solidity >=0.4.22 <0.9.0;\n\ncontract Test {\n    uint256 favoriteNumber;\n\n    function getFavoriteNumber() external view returns (uint256) {\n        return favoriteNumber;\n    }\n    function setFavoriteNumber(uint256 _favoriteNumber) external {\n        favoriteNumber = _favoriteNumber;\n    }\n\n\tfunction addition(uint256 _x) external pure returns (uint256) {\n\t\treturn _x + 5;\n\t}\n\tfunction multiplication(uint256 _x, uint256 _y) external pure returns (uint256) {\n\t\treturn _x*_y;\n\t}\n\n\t\n}\n",
  "sourcePath": "/home/tttienthinh/Documents/Programmation/Arbitrage/SolidityContracts/tests/contracts/Test.sol",
  "compiler": {
    "name": "solc",
    "version": "0.8.17+commit.8df45f5f.Emscripten.clang"
  },
  "schemaVersion": "3.4.10",
  "updatedAt": "2022-12-18T23:11:47.866Z",
  "networkType": "ethereum",
  "devdoc": {
    "kind": "dev",
    "methods": {},
    "version": 1
  },
  "userdoc": {
    "kind": "user",
    "methods": {},
    "version": 1
  }
}