{
  "contractName": "FavoriteAddress",
  "abi": [
    {
      "inputs": [],
      "name": "getFavoriteAddress",
      "outputs": [
        {
          "internalType": "address",
          "name": "",
          "type": "address"
        }
      ],
      "stateMutability": "view",
      "type": "function",
      "constant": true
    },
    {
      "inputs": [
        {
          "internalType": "address",
          "name": "_favoriteAddress",
          "type": "address"
        }
      ],
      "name": "setFavoriteAddress",
      "outputs": [],
      "stateMutability": "nonpayable",
      "type": "function"
    }
  ],
  "bytecode": "0x608060405234801561001057600080fd5b506101d1806100206000396000f3fe608060405234801561001057600080fd5b50600436106100365760003560e01c806329ecb11a1461003b5780637e226e4914610057575b600080fd5b61005560048036038101906100509190610144565b610075565b005b61005f6100b8565b60405161006c9190610180565b60405180910390f35b806000806101000a81548173ffffffffffffffffffffffffffffffffffffffff021916908373ffffffffffffffffffffffffffffffffffffffff16021790555050565b60008060009054906101000a900473ffffffffffffffffffffffffffffffffffffffff16905090565b600080fd5b600073ffffffffffffffffffffffffffffffffffffffff82169050919050565b6000610111826100e6565b9050919050565b61012181610106565b811461012c57600080fd5b50565b60008135905061013e81610118565b92915050565b60006020828403121561015a576101596100e1565b5b60006101688482850161012f565b91505092915050565b61017a81610106565b82525050565b60006020820190506101956000830184610171565b9291505056fea2646970667358221220700a05f286d7c01dbc699259775486d260fe87e99aef9737118d1c60e4dcc1e564736f6c63430008110033",
  "immutableReferences": {},
  "source": "// SPDX-License-Identifier: MIT\npragma solidity >=0.4.22 <0.9.0;\n\ncontract FavoriteAddress {\n  address favoriteAddress;\n  function getFavoriteAddress() external view returns(address) {\n    return favoriteAddress;\n  }\n\n  function setFavoriteAddress(address _favoriteAddress) external {\n    favoriteAddress = _favoriteAddress;\n  }\n}\n",
  "sourcePath": "/home/tttienthinh/Documents/Programmation/Arbitrage/SolidityContracts/favoritenumber/contracts/FavoriteAddress.sol",
  "compiler": {
    "name": "solc",
    "version": "0.8.17+commit.8df45f5f.Emscripten.clang"
  },
  "schemaVersion": "3.4.10",
  "updatedAt": "2022-12-18T22:43:10.534Z",
  "networkType": "ethereum",
  "devdoc": {
    "kind": "dev",
    "methods": {},
    "version": 1
  },
  "userdoc": {
    "kind": "user",
    "methods": {},
    "version": 1
  }
}