{
  "contractName": "Multiply",
  "abi": [
    {
      "inputs": [
        {
          "internalType": "uint256",
          "name": "n",
          "type": "uint256"
        }
      ],
      "name": "sommeN",
      "outputs": [
        {
          "internalType": "uint256",
          "name": "",
          "type": "uint256"
        }
      ],
      "stateMutability": "pure",
      "type": "function",
      "constant": true
    },
    {
      "inputs": [
        {
          "internalType": "uint256[]",
          "name": "_arr",
          "type": "uint256[]"
        }
      ],
      "name": "sommeA",
      "outputs": [
        {
          "internalType": "uint256",
          "name": "",
          "type": "uint256"
        }
      ],
      "stateMutability": "pure",
      "type": "function",
      "constant": true
    }
  ],
  "bytecode": "0x608060405234801561001057600080fd5b50610483806100206000396000f3fe608060405234801561001057600080fd5b50600436106100365760003560e01c80633512e38a1461003b578063ece91e571461006b575b600080fd5b6100556004803603810190610050919061017a565b61009b565b60405161006291906101b6565b60405180910390f35b6100856004803603810190610080919061032a565b6100d7565b60405161009291906101b6565b60405180910390f35b6000806000905060005b8381116100cd5780826100b891906103a2565b915080806100c5906103d6565b9150506100a5565b5080915050919050565b600080825190506000805b82811015610125578481815181106100fd576100fc61041e565b5b60200260200101518261011091906103a2565b9150808061011d906103d6565b9150506100e2565b508092505050919050565b6000604051905090565b600080fd5b600080fd5b6000819050919050565b61015781610144565b811461016257600080fd5b50565b6000813590506101748161014e565b92915050565b6000602082840312156101905761018f61013a565b5b600061019e84828501610165565b91505092915050565b6101b081610144565b82525050565b60006020820190506101cb60008301846101a7565b92915050565b600080fd5b6000601f19601f8301169050919050565b7f4e487b7100000000000000000000000000000000000000000000000000000000600052604160045260246000fd5b61021f826101d6565b810181811067ffffffffffffffff8211171561023e5761023d6101e7565b5b80604052505050565b6000610251610130565b905061025d8282610216565b919050565b600067ffffffffffffffff82111561027d5761027c6101e7565b5b602082029050602081019050919050565b600080fd5b60006102a66102a184610262565b610247565b905080838252602082019050602084028301858111156102c9576102c861028e565b5b835b818110156102f257806102de8882610165565b8452602084019350506020810190506102cb565b5050509392505050565b600082601f830112610311576103106101d1565b5b8135610321848260208601610293565b91505092915050565b6000602082840312156103405761033f61013a565b5b600082013567ffffffffffffffff81111561035e5761035d61013f565b5b61036a848285016102fc565b91505092915050565b7f4e487b7100000000000000000000000000000000000000000000000000000000600052601160045260246000fd5b60006103ad82610144565b91506103b883610144565b92508282019050808211156103d0576103cf610373565b5b92915050565b60006103e182610144565b91507fffffffffffffffffffffffffffffffffffffffffffffffffffffffffffffffff820361041357610412610373565b5b600182019050919050565b7f4e487b7100000000000000000000000000000000000000000000000000000000600052603260045260246000fdfea2646970667358221220b1995087f7b7d9dc83c482b884d096d5c2adff1eb20c9becda0f700d0f9617b164736f6c63430008110033",
  "immutableReferences": {},
  "source": "// SPDX-License-Identifier: MIT\npragma solidity >=0.4.22 <0.9.0;\n\ncontract Multiply {\n    function sommeN(uint256 n) external pure returns (uint256) {\n        uint256 somme = 0;\n\n        for (uint256 i = 0; i <= n; i++) {\n            somme = somme + i;\n        }\n        return somme;\n    }\n\n    function sommeA(uint256[] memory _arr) external pure returns (uint256) {\n        uint n = _arr.length;\n        uint somme = 0;\n        for (uint i=0; i<n; i++) {\n          somme = somme + _arr[i];\n        }\n        return somme;\n    }\n}\n",
  "sourcePath": "/home/tttienthinh/Documents/Programmation/Arbitrage/SolidityContracts/forloop/contracts/Multiply.sol",
  "compiler": {
    "name": "solc",
    "version": "0.8.17+commit.8df45f5f.Emscripten.clang"
  },
  "schemaVersion": "3.4.10",
  "updatedAt": "2022-12-19T13:55:25.003Z",
  "networkType": "ethereum",
  "devdoc": {
    "kind": "dev",
    "methods": {},
    "version": 1
  },
  "userdoc": {
    "kind": "user",
    "methods": {},
    "version": 1
  }
}