{
  "contractName": "a_get",
  "abi": [
    {
      "inputs": [
        {
          "internalType": "address",
          "name": "_t",
          "type": "address"
        }
      ],
      "name": "getA",
      "outputs": [
        {
          "internalType": "uint256",
          "name": "",
          "type": "uint256"
        }
      ],
      "stateMutability": "view",
      "type": "function",
      "constant": true
    },
    {
      "inputs": [
        {
          "internalType": "address",
          "name": "_t",
          "type": "address"
        }
      ],
      "name": "getA2",
      "outputs": [
        {
          "internalType": "uint256",
          "name": "",
          "type": "uint256"
        }
      ],
      "stateMutability": "pure",
      "type": "function",
      "constant": true
    }
  ],
  "bytecode": "0x608060405234801561001057600080fd5b506102de806100206000396000f3fe608060405234801561001057600080fd5b50600436106100365760003560e01c80634ed33ace1461003b57806384fb7c041461006b575b600080fd5b610055600480360381019061005091906101ee565b61009b565b6040516100629190610234565b60405180910390f35b610085600480360381019061008091906101ee565b610113565b6040516100929190610234565b60405180910390f35b60008173ffffffffffffffffffffffffffffffffffffffff1663a621d15e6040518163ffffffff1660e01b8152600401602060405180830381865afa1580156100e8573d6000803e3d6000fd5b505050506040513d601f19601f8201168201806040525081019061010c919061027b565b9050919050565b60008173ffffffffffffffffffffffffffffffffffffffff16636a744ee06040518163ffffffff1660e01b8152600401602060405180830381865afa158015610160573d6000803e3d6000fd5b505050506040513d601f19601f82011682018060405250810190610184919061027b565b9050919050565b600080fd5b600073ffffffffffffffffffffffffffffffffffffffff82169050919050565b60006101bb82610190565b9050919050565b6101cb816101b0565b81146101d657600080fd5b50565b6000813590506101e8816101c2565b92915050565b6000602082840312156102045761020361018b565b5b6000610212848285016101d9565b91505092915050565b6000819050919050565b61022e8161021b565b82525050565b60006020820190506102496000830184610225565b92915050565b6102588161021b565b811461026357600080fd5b50565b6000815190506102758161024f565b92915050565b6000602082840312156102915761029061018b565b5b600061029f84828501610266565b9150509291505056fea2646970667358221220c7433ea639aa6dda7a6046763955d8d8359292273f05026e8feb3e0f19277c5764736f6c63430008110033",
  "immutableReferences": {},
  "source": "// SPDX-License-Identifier: MIT\npragma solidity >=0.4.22 <0.9.0;\n\ncontract a {\n    function getFavoriteNumber() public view returns(uint) {}\n    function getFavoriteNumber2() public pure returns(uint) {}\n}\n\ncontract a_get {\n    function getA(address _t) public view returns (uint) {\n        return a(_t).getFavoriteNumber();\n    }\n    function getA2(address _t) public pure returns (uint) {\n        return a(_t).getFavoriteNumber2();\n    }\n}",
  "sourcePath": "/home/tttienthinh/Documents/Programmation/Arbitrage/SolidityContracts/evolution/contracts/a_get.sol",
  "compiler": {
    "name": "solc",
    "version": "0.8.17+commit.8df45f5f.Emscripten.clang"
  },
  "schemaVersion": "3.4.10",
  "updatedAt": "2022-12-24T22:20:54.708Z",
  "networkType": "ethereum",
  "devdoc": {
    "kind": "dev",
    "methods": {},
    "version": 1
  },
  "userdoc": {
    "kind": "user",
    "methods": {},
    "version": 1
  }
}