{
  "contractName": "b_get",
  "abi": [
    {
      "inputs": [
        {
          "internalType": "address",
          "name": "_t",
          "type": "address"
        }
      ],
      "name": "getA",
      "outputs": [
        {
          "internalType": "uint256",
          "name": "result",
          "type": "uint256"
        }
      ],
      "stateMutability": "view",
      "type": "function",
      "constant": true
    },
    {
      "inputs": [
        {
          "internalType": "address",
          "name": "_t",
          "type": "address"
        },
        {
          "internalType": "uint256",
          "name": "_val",
          "type": "uint256"
        }
      ],
      "name": "setA",
      "outputs": [],
      "stateMutability": "nonpayable",
      "type": "function"
    }
  ],
  "bytecode": "0x608060405234801561001057600080fd5b50610316806100206000396000f3fe608060405234801561001057600080fd5b50600436106100365760003560e01c80634ed33ace1461003b578063ac62d3591461006b575b600080fd5b610055600480360381019061005091906101d1565b610087565b6040516100629190610217565b60405180910390f35b6100856004803603810190610080919061025e565b6100ff565b005b60008173ffffffffffffffffffffffffffffffffffffffff1663a621d15e6040518163ffffffff1660e01b8152600401602060405180830381865afa1580156100d4573d6000803e3d6000fd5b505050506040513d601f19601f820116820180604052508101906100f891906102b3565b9050919050565b8173ffffffffffffffffffffffffffffffffffffffff16638ec04232826040518263ffffffff1660e01b81526004016101389190610217565b600060405180830381600087803b15801561015257600080fd5b505af1158015610166573d6000803e3d6000fd5b505050505050565b600080fd5b600073ffffffffffffffffffffffffffffffffffffffff82169050919050565b600061019e82610173565b9050919050565b6101ae81610193565b81146101b957600080fd5b50565b6000813590506101cb816101a5565b92915050565b6000602082840312156101e7576101e661016e565b5b60006101f5848285016101bc565b91505092915050565b6000819050919050565b610211816101fe565b82525050565b600060208201905061022c6000830184610208565b92915050565b61023b816101fe565b811461024657600080fd5b50565b60008135905061025881610232565b92915050565b600080604083850312156102755761027461016e565b5b6000610283858286016101bc565b925050602061029485828601610249565b9150509250929050565b6000815190506102ad81610232565b92915050565b6000602082840312156102c9576102c861016e565b5b60006102d78482850161029e565b9150509291505056fea26469706673582212209d48db78d6cbd1cd9338d14c70671261ca1b531daae890c699ee255ea6e8c1a564736f6c63430008110033",
  "immutableReferences": {},
  "source": "// SPDX-License-Identifier: MIT\n// compiled with 0.8.17\npragma solidity >=0.4.22 <0.9.0;\n\ncontract b {\n    \n    function getFavoriteNumber() public view returns(uint) {}\n    \n    function setFavoriteNumber(uint _favoriteNumber) public {}\n    \n}\n\ncontract b_get {\n\n    function getA(address _t) public view returns (uint result) {\n        return b(_t).getFavoriteNumber();\n    }\n    \n    function setA(address _t, uint _val) public {\n        b(_t).setFavoriteNumber(_val);\n    }\n}\n",
  "sourcePath": "/home/tttienthinh/Documents/Programmation/Arbitrage/SolidityContracts/evolution/contracts/b_get.sol",
  "compiler": {
    "name": "solc",
    "version": "0.8.17+commit.8df45f5f.Emscripten.clang"
  },
  "schemaVersion": "3.4.10",
  "updatedAt": "2022-12-24T22:20:55.370Z",
  "networkType": "ethereum",
  "devdoc": {
    "kind": "dev",
    "methods": {},
    "version": 1
  },
  "userdoc": {
    "kind": "user",
    "methods": {},
    "version": 1
  }
}